{
  "contractName": "PgNFT",
  "abi": [
    {
      "inputs": [],
      "stateMutability": "nonpayable",
      "type": "constructor"
    },
    {
      "anonymous": false,
      "inputs": [
        {
          "indexed": true,
          "internalType": "address",
          "name": "owner",
          "type": "address"
        },
        {
          "indexed": true,
          "internalType": "address",
          "name": "approved",
          "type": "address"
        },
        {
          "indexed": true,
          "internalType": "uint256",
          "name": "tokenId",
          "type": "uint256"
        }
      ],
      "name": "Approval",
      "type": "event"
    },
    {
      "anonymous": false,
      "inputs": [
        {
          "indexed": true,
          "internalType": "address",
          "name": "owner",
          "type": "address"
        },
        {
          "indexed": true,
          "internalType": "address",
          "name": "operator",
          "type": "address"
        },
        {
          "indexed": false,
          "internalType": "bool",
          "name": "approved",
          "type": "bool"
        }
      ],
      "name": "ApprovalForAll",
      "type": "event"
    },
    {
      "anonymous": false,
      "inputs": [
        {
          "indexed": true,
          "internalType": "address",
          "name": "from",
          "type": "address"
        },
        {
          "indexed": true,
          "internalType": "address",
          "name": "to",
          "type": "address"
        },
        {
          "indexed": true,
          "internalType": "uint256",
          "name": "tokenId",
          "type": "uint256"
        }
      ],
      "name": "Transfer",
      "type": "event"
    },
    {
      "inputs": [
        {
          "internalType": "address",
          "name": "to",
          "type": "address"
        },
        {
          "internalType": "uint256",
          "name": "tokenId",
          "type": "uint256"
        }
      ],
      "name": "approve",
      "outputs": [],
      "stateMutability": "nonpayable",
      "type": "function"
    },
    {
      "inputs": [
        {
          "internalType": "address",
          "name": "owner",
          "type": "address"
        }
      ],
      "name": "balanceOf",
      "outputs": [
        {
          "internalType": "uint256",
          "name": "",
          "type": "uint256"
        }
      ],
      "stateMutability": "view",
      "type": "function"
    },
    {
      "inputs": [
        {
          "internalType": "uint256",
          "name": "tokenId",
          "type": "uint256"
        }
      ],
      "name": "getApproved",
      "outputs": [
        {
          "internalType": "address",
          "name": "",
          "type": "address"
        }
      ],
      "stateMutability": "view",
      "type": "function"
    },
    {
      "inputs": [
        {
          "internalType": "address",
          "name": "owner",
          "type": "address"
        },
        {
          "internalType": "address",
          "name": "operator",
          "type": "address"
        }
      ],
      "name": "isApprovedForAll",
      "outputs": [
        {
          "internalType": "bool",
          "name": "",
          "type": "bool"
        }
      ],
      "stateMutability": "view",
      "type": "function"
    },
    {
      "inputs": [],
      "name": "name",
      "outputs": [
        {
          "internalType": "string",
          "name": "",
          "type": "string"
        }
      ],
      "stateMutability": "view",
      "type": "function"
    },
    {
      "inputs": [
        {
          "internalType": "uint256",
          "name": "tokenId",
          "type": "uint256"
        }
      ],
      "name": "ownerOf",
      "outputs": [
        {
          "internalType": "address",
          "name": "",
          "type": "address"
        }
      ],
      "stateMutability": "view",
      "type": "function"
    },
    {
      "inputs": [
        {
          "internalType": "address",
          "name": "from",
          "type": "address"
        },
        {
          "internalType": "address",
          "name": "to",
          "type": "address"
        },
        {
          "internalType": "uint256",
          "name": "tokenId",
          "type": "uint256"
        }
      ],
      "name": "safeTransferFrom",
      "outputs": [],
      "stateMutability": "nonpayable",
      "type": "function"
    },
    {
      "inputs": [
        {
          "internalType": "address",
          "name": "from",
          "type": "address"
        },
        {
          "internalType": "address",
          "name": "to",
          "type": "address"
        },
        {
          "internalType": "uint256",
          "name": "tokenId",
          "type": "uint256"
        },
        {
          "internalType": "bytes",
          "name": "_data",
          "type": "bytes"
        }
      ],
      "name": "safeTransferFrom",
      "outputs": [],
      "stateMutability": "nonpayable",
      "type": "function"
    },
    {
      "inputs": [
        {
          "internalType": "address",
          "name": "operator",
          "type": "address"
        },
        {
          "internalType": "bool",
          "name": "approved",
          "type": "bool"
        }
      ],
      "name": "setApprovalForAll",
      "outputs": [],
      "stateMutability": "nonpayable",
      "type": "function"
    },
    {
      "inputs": [
        {
          "internalType": "bytes4",
          "name": "interfaceId",
          "type": "bytes4"
        }
      ],
      "name": "supportsInterface",
      "outputs": [
        {
          "internalType": "bool",
          "name": "",
          "type": "bool"
        }
      ],
      "stateMutability": "view",
      "type": "function"
    },
    {
      "inputs": [],
      "name": "symbol",
      "outputs": [
        {
          "internalType": "string",
          "name": "",
          "type": "string"
        }
      ],
      "stateMutability": "view",
      "type": "function"
    },
    {
      "inputs": [
        {
          "internalType": "uint256",
          "name": "tokenId",
          "type": "uint256"
        }
      ],
      "name": "tokenURI",
      "outputs": [
        {
          "internalType": "string",
          "name": "",
          "type": "string"
        }
      ],
      "stateMutability": "view",
      "type": "function"
    },
    {
      "inputs": [
        {
          "internalType": "address",
          "name": "from",
          "type": "address"
        },
        {
          "internalType": "address",
          "name": "to",
          "type": "address"
        },
        {
          "internalType": "uint256",
          "name": "tokenId",
          "type": "uint256"
        }
      ],
      "name": "transferFrom",
      "outputs": [],
      "stateMutability": "nonpayable",
      "type": "function"
    },
    {
      "inputs": [
        {
          "internalType": "address",
          "name": "recipient",
          "type": "address"
        },
        {
          "internalType": "string",
          "name": "tokenURI",
          "type": "string"
        }
      ],
      "name": "mintNFT",
      "outputs": [
        {
          "internalType": "uint256",
          "name": "",
          "type": "uint256"
        }
      ],
      "stateMutability": "payable",
      "type": "function"
    }
  ],
  "bytecode": "0x60806040523480156200001157600080fd5b506040518060400160405280600581526020017f50674e46540000000000000000000000000000000000000000000000000000008152506040518060400160405280600281526020017f5047000000000000000000000000000000000000000000000000000000000000815250816000908051906020019062000096929190620000b8565b508060019080519060200190620000af929190620000b8565b505050620001cd565b828054620000c69062000168565b90600052602060002090601f016020900481019282620000ea576000855562000136565b82601f106200010557805160ff191683800117855562000136565b8280016001018555821562000136579182015b828111156200013557825182559160200191906001019062000118565b5b50905062000145919062000149565b5090565b5b80821115620001645760008160009055506001016200014a565b5090565b600060028204905060018216806200018157607f821691505b602082108114156200019857620001976200019e565b5b50919050565b7f4e487b7100000000000000000000000000000000000000000000000000000000600052602260045260246000fd5b612bec80620001dd6000396000f3fe6080604052600436106100dd5760003560e01c806370a082311161007f578063b88d4fde11610059578063b88d4fde146102d0578063c87b56dd146102f9578063e985e9c514610336578063eacabe1414610373576100dd565b806370a082311461023f57806395d89b411461027c578063a22cb465146102a7576100dd565b8063095ea7b3116100bb578063095ea7b31461018757806323b872dd146101b057806342842e0e146101d95780636352211e14610202576100dd565b806301ffc9a7146100e257806306fdde031461011f578063081812fc1461014a575b600080fd5b3480156100ee57600080fd5b5061010960048036038101906101049190611cfa565b6103a3565b6040516101169190612524565b60405180910390f35b34801561012b57600080fd5b50610134610485565b604051610141919061253f565b60405180910390f35b34801561015657600080fd5b50610171600480360381019061016c9190611d4c565b610517565b60405161017e91906124bd565b60405180910390f35b34801561019357600080fd5b506101ae60048036038101906101a99190611cbe565b61059c565b005b3480156101bc57600080fd5b506101d760048036038101906101d29190611b64565b6106b4565b005b3480156101e557600080fd5b5061020060048036038101906101fb9190611b64565b610714565b005b34801561020e57600080fd5b5061022960048036038101906102249190611d4c565b610734565b60405161023691906124bd565b60405180910390f35b34801561024b57600080fd5b5061026660048036038101906102619190611aff565b6107e6565b6040516102739190612781565b60405180910390f35b34801561028857600080fd5b5061029161089e565b60405161029e919061253f565b60405180910390f35b3480156102b357600080fd5b506102ce60048036038101906102c99190611c2e565b610930565b005b3480156102dc57600080fd5b506102f760048036038101906102f29190611bb3565b610ab1565b005b34801561030557600080fd5b50610320600480360381019061031b9190611d4c565b610b13565b60405161032d919061253f565b60405180910390f35b34801561034257600080fd5b5061035d60048036038101906103589190611b28565b610c65565b60405161036a9190612524565b60405180910390f35b61038d60048036038101906103889190611c6a565b610cf9565b60405161039a9190612781565b60405180910390f35b60007f80ac58cd000000000000000000000000000000000000000000000000000000007bffffffffffffffffffffffffffffffffffffffffffffffffffffffff1916827bffffffffffffffffffffffffffffffffffffffffffffffffffffffff1916148061046e57507f5b5e139f000000000000000000000000000000000000000000000000000000007bffffffffffffffffffffffffffffffffffffffffffffffffffffffff1916827bffffffffffffffffffffffffffffffffffffffffffffffffffffffff1916145b8061047e575061047d82610d76565b5b9050919050565b606060008054610494906129e1565b80601f01602080910402602001604051908101604052809291908181526020018280546104c0906129e1565b801561050d5780601f106104e25761010080835404028352916020019161050d565b820191906000526020600020905b8154815290600101906020018083116104f057829003601f168201915b5050505050905090565b600061052282610de0565b610561576040517f08c379a0000000000000000000000000000000000000000000000000000000008152600401610558906126c1565b60405180910390fd5b6004600083815260200190815260200160002060009054906101000a900473ffffffffffffffffffffffffffffffffffffffff169050919050565b60006105a782610734565b90508073ffffffffffffffffffffffffffffffffffffffff168373ffffffffffffffffffffffffffffffffffffffff161415610618576040517f08c379a000000000000000000000000000000000000000000000000000000000815260040161060f90612721565b60405180910390fd5b8073ffffffffffffffffffffffffffffffffffffffff16610637610e4c565b73ffffffffffffffffffffffffffffffffffffffff161480610666575061066581610660610e4c565b610c65565b5b6106a5576040517f08c379a000000000000000000000000000000000000000000000000000000000815260040161069c90612601565b60405180910390fd5b6106af8383610e54565b505050565b6106c56106bf610e4c565b82610f0d565b610704576040517f08c379a00000000000000000000000000000000000000000000000000000000081526004016106fb90612741565b60405180910390fd5b61070f838383610feb565b505050565b61072f83838360405180602001604052806000815250610ab1565b505050565b6000806002600084815260200190815260200160002060009054906101000a900473ffffffffffffffffffffffffffffffffffffffff169050600073ffffffffffffffffffffffffffffffffffffffff168173ffffffffffffffffffffffffffffffffffffffff1614156107dd576040517f08c379a00000000000000000000000000000000000000000000000000000000081526004016107d490612641565b60405180910390fd5b80915050919050565b60008073ffffffffffffffffffffffffffffffffffffffff168273ffffffffffffffffffffffffffffffffffffffff161415610857576040517f08c379a000000000000000000000000000000000000000000000000000000000815260040161084e90612621565b60405180910390fd5b600360008373ffffffffffffffffffffffffffffffffffffffff1673ffffffffffffffffffffffffffffffffffffffff168152602001908152602001600020549050919050565b6060600180546108ad906129e1565b80601f01602080910402602001604051908101604052809291908181526020018280546108d9906129e1565b80156109265780601f106108fb57610100808354040283529160200191610926565b820191906000526020600020905b81548152906001019060200180831161090957829003601f168201915b5050505050905090565b610938610e4c565b73ffffffffffffffffffffffffffffffffffffffff168273ffffffffffffffffffffffffffffffffffffffff1614156109a6576040517f08c379a000000000000000000000000000000000000000000000000000000000815260040161099d906125c1565b60405180910390fd5b80600560006109b3610e4c565b73ffffffffffffffffffffffffffffffffffffffff1673ffffffffffffffffffffffffffffffffffffffff16815260200190815260200160002060008473ffffffffffffffffffffffffffffffffffffffff1673ffffffffffffffffffffffffffffffffffffffff16815260200190815260200160002060006101000a81548160ff0219169083151502179055508173ffffffffffffffffffffffffffffffffffffffff16610a60610e4c565b73ffffffffffffffffffffffffffffffffffffffff167f17307eab39ab6107e8899845ad3d59bd9653f200f220920489ca2b5937696c3183604051610aa59190612524565b60405180910390a35050565b610ac2610abc610e4c565b83610f0d565b610b01576040517f08c379a0000000000000000000000000000000000000000000000000000000008152600401610af890612741565b60405180910390fd5b610b0d84848484611247565b50505050565b6060610b1e82610de0565b610b5d576040517f08c379a0000000000000000000000000000000000000000000000000000000008152600401610b54906126a1565b60405180910390fd5b6000600660008481526020019081526020016000208054610b7d906129e1565b80601f0160208091040260200160405190810160405280929190818152602001828054610ba9906129e1565b8015610bf65780601f10610bcb57610100808354040283529160200191610bf6565b820191906000526020600020905b815481529060010190602001808311610bd957829003601f168201915b505050505090506000610c076112a3565b9050600081511415610c1d578192505050610c60565b600082511115610c52578082604051602001610c3a929190612499565b60405160208183030381529060405292505050610c60565b610c5b846112ba565b925050505b919050565b6000600560008473ffffffffffffffffffffffffffffffffffffffff1673ffffffffffffffffffffffffffffffffffffffff16815260200190815260200160002060008373ffffffffffffffffffffffffffffffffffffffff1673ffffffffffffffffffffffffffffffffffffffff16815260200190815260200160002060009054906101000a900460ff16905092915050565b60006103e8341015610d40576040517f08c379a0000000000000000000000000000000000000000000000000000000008152600401610d3790612761565b60405180910390fd5b610d4a6007611361565b6000610d566007611377565b9050610d628482611385565b610d6c8184611553565b8091505092915050565b60007f01ffc9a7000000000000000000000000000000000000000000000000000000007bffffffffffffffffffffffffffffffffffffffffffffffffffffffff1916827bffffffffffffffffffffffffffffffffffffffffffffffffffffffff1916149050919050565b60008073ffffffffffffffffffffffffffffffffffffffff166002600084815260200190815260200160002060009054906101000a900473ffffffffffffffffffffffffffffffffffffffff1673ffffffffffffffffffffffffffffffffffffffff1614159050919050565b600033905090565b816004600083815260200190815260200160002060006101000a81548173ffffffffffffffffffffffffffffffffffffffff021916908373ffffffffffffffffffffffffffffffffffffffff160217905550808273ffffffffffffffffffffffffffffffffffffffff16610ec783610734565b73ffffffffffffffffffffffffffffffffffffffff167f8c5be1e5ebec7d5bd14f71427d1e84f3dd0314c0f7b2291e5b200ac8c7c3b92560405160405180910390a45050565b6000610f1882610de0565b610f57576040517f08c379a0000000000000000000000000000000000000000000000000000000008152600401610f4e906125e1565b60405180910390fd5b6000610f6283610734565b90508073ffffffffffffffffffffffffffffffffffffffff168473ffffffffffffffffffffffffffffffffffffffff161480610fd157508373ffffffffffffffffffffffffffffffffffffffff16610fb984610517565b73ffffffffffffffffffffffffffffffffffffffff16145b80610fe25750610fe18185610c65565b5b91505092915050565b8273ffffffffffffffffffffffffffffffffffffffff1661100b82610734565b73ffffffffffffffffffffffffffffffffffffffff1614611061576040517f08c379a0000000000000000000000000000000000000000000000000000000008152600401611058906126e1565b60405180910390fd5b600073ffffffffffffffffffffffffffffffffffffffff168273ffffffffffffffffffffffffffffffffffffffff1614156110d1576040517f08c379a00000000000000000000000000000000000000000000000000000000081526004016110c8906125a1565b60405180910390fd5b6110dc8383836115c7565b6110e7600082610e54565b6001600360008573ffffffffffffffffffffffffffffffffffffffff1673ffffffffffffffffffffffffffffffffffffffff168152602001908152602001600020600082825461113791906128f7565b925050819055506001600360008473ffffffffffffffffffffffffffffffffffffffff1673ffffffffffffffffffffffffffffffffffffffff168152602001908152602001600020600082825461118e9190612870565b92505081905550816002600083815260200190815260200160002060006101000a81548173ffffffffffffffffffffffffffffffffffffffff021916908373ffffffffffffffffffffffffffffffffffffffff160217905550808273ffffffffffffffffffffffffffffffffffffffff168473ffffffffffffffffffffffffffffffffffffffff167fddf252ad1be2c89b69c2b068fc378daa952ba7f163c4a11628f55a4df523b3ef60405160405180910390a4505050565b611252848484610feb565b61125e848484846115cc565b61129d576040517f08c379a000000000000000000000000000000000000000000000000000000000815260040161129490612561565b60405180910390fd5b50505050565b606060405180602001604052806000815250905090565b60606112c582610de0565b611304576040517f08c379a00000000000000000000000000000000000000000000000000000000081526004016112fb90612701565b60405180910390fd5b600061130e6112a3565b9050600081511161132e5760405180602001604052806000815250611359565b8061133884611763565b604051602001611349929190612499565b6040516020818303038152906040525b915050919050565b6001816000016000828254019250508190555050565b600081600001549050919050565b600073ffffffffffffffffffffffffffffffffffffffff168273ffffffffffffffffffffffffffffffffffffffff1614156113f5576040517f08c379a00000000000000000000000000000000000000000000000000000000081526004016113ec90612681565b60405180910390fd5b6113fe81610de0565b1561143e576040517f08c379a000000000000000000000000000000000000000000000000000000000815260040161143590612581565b60405180910390fd5b61144a600083836115c7565b6001600360008473ffffffffffffffffffffffffffffffffffffffff1673ffffffffffffffffffffffffffffffffffffffff168152602001908152602001600020600082825461149a9190612870565b92505081905550816002600083815260200190815260200160002060006101000a81548173ffffffffffffffffffffffffffffffffffffffff021916908373ffffffffffffffffffffffffffffffffffffffff160217905550808273ffffffffffffffffffffffffffffffffffffffff16600073ffffffffffffffffffffffffffffffffffffffff167fddf252ad1be2c89b69c2b068fc378daa952ba7f163c4a11628f55a4df523b3ef60405160405180910390a45050565b61155c82610de0565b61159b576040517f08c379a000000000000000000000000000000000000000000000000000000000815260040161159290612661565b60405180910390fd5b806006600084815260200190815260200160002090805190602001906115c2929190611923565b505050565b505050565b60006115ed8473ffffffffffffffffffffffffffffffffffffffff16611910565b15611756578373ffffffffffffffffffffffffffffffffffffffff1663150b7a02611616610e4c565b8786866040518563ffffffff1660e01b815260040161163894939291906124d8565b602060405180830381600087803b15801561165257600080fd5b505af192505050801561168357506040513d601f19601f820116820180604052508101906116809190611d23565b60015b611706573d80600081146116b3576040519150601f19603f3d011682016040523d82523d6000602084013e6116b8565b606091505b506000815114156116fe576040517f08c379a00000000000000000000000000000000000000000000000000000000081526004016116f590612561565b60405180910390fd5b805181602001fd5b63150b7a0260e01b7bffffffffffffffffffffffffffffffffffffffffffffffffffffffff1916817bffffffffffffffffffffffffffffffffffffffffffffffffffffffff19161491505061175b565b600190505b949350505050565b606060008214156117ab576040518060400160405280600181526020017f3000000000000000000000000000000000000000000000000000000000000000815250905061190b565b600082905060005b600082146117dd5780806117c690612a13565b915050600a826117d691906128c6565b91506117b3565b60008167ffffffffffffffff81111561181f577f4e487b7100000000000000000000000000000000000000000000000000000000600052604160045260246000fd5b6040519080825280601f01601f1916602001820160405280156118515781602001600182028036833780820191505090505b5090505b600085146119045760018261186a91906128f7565b9150600a856118799190612a5c565b60306118859190612870565b60f81b8183815181106118c1577f4e487b7100000000000000000000000000000000000000000000000000000000600052603260045260246000fd5b60200101907effffffffffffffffffffffffffffffffffffffffffffffffffffffffffffff1916908160001a905350600a856118fd91906128c6565b9450611855565b8093505050505b919050565b600080823b905060008111915050919050565b82805461192f906129e1565b90600052602060002090601f0160209004810192826119515760008555611998565b82601f1061196a57805160ff1916838001178555611998565b82800160010185558215611998579182015b8281111561199757825182559160200191906001019061197c565b5b5090506119a591906119a9565b5090565b5b808211156119c25760008160009055506001016119aa565b5090565b60006119d96119d4846127cd565b61279c565b9050828152602081018484840111156119f157600080fd5b6119fc84828561299f565b509392505050565b6000611a17611a12846127fd565b61279c565b905082815260208101848484011115611a2f57600080fd5b611a3a84828561299f565b509392505050565b600081359050611a5181612b5a565b92915050565b600081359050611a6681612b71565b92915050565b600081359050611a7b81612b88565b92915050565b600081519050611a9081612b88565b92915050565b600082601f830112611aa757600080fd5b8135611ab78482602086016119c6565b91505092915050565b600082601f830112611ad157600080fd5b8135611ae1848260208601611a04565b91505092915050565b600081359050611af981612b9f565b92915050565b600060208284031215611b1157600080fd5b6000611b1f84828501611a42565b91505092915050565b60008060408385031215611b3b57600080fd5b6000611b4985828601611a42565b9250506020611b5a85828601611a42565b9150509250929050565b600080600060608486031215611b7957600080fd5b6000611b8786828701611a42565b9350506020611b9886828701611a42565b9250506040611ba986828701611aea565b9150509250925092565b60008060008060808587031215611bc957600080fd5b6000611bd787828801611a42565b9450506020611be887828801611a42565b9350506040611bf987828801611aea565b925050606085013567ffffffffffffffff811115611c1657600080fd5b611c2287828801611a96565b91505092959194509250565b60008060408385031215611c4157600080fd5b6000611c4f85828601611a42565b9250506020611c6085828601611a57565b9150509250929050565b60008060408385031215611c7d57600080fd5b6000611c8b85828601611a42565b925050602083013567ffffffffffffffff811115611ca857600080fd5b611cb485828601611ac0565b9150509250929050565b60008060408385031215611cd157600080fd5b6000611cdf85828601611a42565b9250506020611cf085828601611aea565b9150509250929050565b600060208284031215611d0c57600080fd5b6000611d1a84828501611a6c565b91505092915050565b600060208284031215611d3557600080fd5b6000611d4384828501611a81565b91505092915050565b600060208284031215611d5e57600080fd5b6000611d6c84828501611aea565b91505092915050565b611d7e8161292b565b82525050565b611d8d8161293d565b82525050565b6000611d9e8261282d565b611da88185612843565b9350611db88185602086016129ae565b611dc181612b49565b840191505092915050565b6000611dd782612838565b611de18185612854565b9350611df18185602086016129ae565b611dfa81612b49565b840191505092915050565b6000611e1082612838565b611e1a8185612865565b9350611e2a8185602086016129ae565b80840191505092915050565b6000611e43603283612854565b91507f4552433732313a207472616e7366657220746f206e6f6e20455243373231526560008301527f63656976657220696d706c656d656e74657200000000000000000000000000006020830152604082019050919050565b6000611ea9601c83612854565b91507f4552433732313a20746f6b656e20616c7265616479206d696e746564000000006000830152602082019050919050565b6000611ee9602483612854565b91507f4552433732313a207472616e7366657220746f20746865207a65726f2061646460008301527f72657373000000000000000000000000000000000000000000000000000000006020830152604082019050919050565b6000611f4f601983612854565b91507f4552433732313a20617070726f766520746f2063616c6c6572000000000000006000830152602082019050919050565b6000611f8f602c83612854565b91507f4552433732313a206f70657261746f7220717565727920666f72206e6f6e657860008301527f697374656e7420746f6b656e00000000000000000000000000000000000000006020830152604082019050919050565b6000611ff5603883612854565b91507f4552433732313a20617070726f76652063616c6c6572206973206e6f74206f7760008301527f6e6572206e6f7220617070726f76656420666f7220616c6c00000000000000006020830152604082019050919050565b600061205b602a83612854565b91507f4552433732313a2062616c616e636520717565727920666f7220746865207a6560008301527f726f2061646472657373000000000000000000000000000000000000000000006020830152604082019050919050565b60006120c1602983612854565b91507f4552433732313a206f776e657220717565727920666f72206e6f6e657869737460008301527f656e7420746f6b656e00000000000000000000000000000000000000000000006020830152604082019050919050565b6000612127602e83612854565b91507f45524337323155524953746f726167653a2055524920736574206f66206e6f6e60008301527f6578697374656e7420746f6b656e0000000000000000000000000000000000006020830152604082019050919050565b600061218d602083612854565b91507f4552433732313a206d696e7420746f20746865207a65726f20616464726573736000830152602082019050919050565b60006121cd603183612854565b91507f45524337323155524953746f726167653a2055524920717565727920666f722060008301527f6e6f6e6578697374656e7420746f6b656e0000000000000000000000000000006020830152604082019050919050565b6000612233602c83612854565b91507f4552433732313a20617070726f76656420717565727920666f72206e6f6e657860008301527f697374656e7420746f6b656e00000000000000000000000000000000000000006020830152604082019050919050565b6000612299602983612854565b91507f4552433732313a207472616e73666572206f6620746f6b656e2074686174206960008301527f73206e6f74206f776e00000000000000000000000000000000000000000000006020830152604082019050919050565b60006122ff602f83612854565b91507f4552433732314d657461646174613a2055524920717565727920666f72206e6f60008301527f6e6578697374656e7420746f6b656e00000000000000000000000000000000006020830152604082019050919050565b6000612365602183612854565b91507f4552433732313a20617070726f76616c20746f2063757272656e74206f776e6560008301527f72000000000000000000000000000000000000000000000000000000000000006020830152604082019050919050565b60006123cb603183612854565b91507f4552433732313a207472616e736665722063616c6c6572206973206e6f74206f60008301527f776e6572206e6f7220617070726f7665640000000000000000000000000000006020830152604082019050919050565b6000612431602183612854565b91507f4e6f7420656e6f756768204554482073656e743b20636865636b20707269636560008301527f21000000000000000000000000000000000000000000000000000000000000006020830152604082019050919050565b61249381612995565b82525050565b60006124a58285611e05565b91506124b18284611e05565b91508190509392505050565b60006020820190506124d26000830184611d75565b92915050565b60006080820190506124ed6000830187611d75565b6124fa6020830186611d75565b612507604083018561248a565b81810360608301526125198184611d93565b905095945050505050565b60006020820190506125396000830184611d84565b92915050565b600060208201905081810360008301526125598184611dcc565b905092915050565b6000602082019050818103600083015261257a81611e36565b9050919050565b6000602082019050818103600083015261259a81611e9c565b9050919050565b600060208201905081810360008301526125ba81611edc565b9050919050565b600060208201905081810360008301526125da81611f42565b9050919050565b600060208201905081810360008301526125fa81611f82565b9050919050565b6000602082019050818103600083015261261a81611fe8565b9050919050565b6000602082019050818103600083015261263a8161204e565b9050919050565b6000602082019050818103600083015261265a816120b4565b9050919050565b6000602082019050818103600083015261267a8161211a565b9050919050565b6000602082019050818103600083015261269a81612180565b9050919050565b600060208201905081810360008301526126ba816121c0565b9050919050565b600060208201905081810360008301526126da81612226565b9050919050565b600060208201905081810360008301526126fa8161228c565b9050919050565b6000602082019050818103600083015261271a816122f2565b9050919050565b6000602082019050818103600083015261273a81612358565b9050919050565b6000602082019050818103600083015261275a816123be565b9050919050565b6000602082019050818103600083015261277a81612424565b9050919050565b6000602082019050612796600083018461248a565b92915050565b6000604051905081810181811067ffffffffffffffff821117156127c3576127c2612b1a565b5b8060405250919050565b600067ffffffffffffffff8211156127e8576127e7612b1a565b5b601f19601f8301169050602081019050919050565b600067ffffffffffffffff82111561281857612817612b1a565b5b601f19601f8301169050602081019050919050565b600081519050919050565b600081519050919050565b600082825260208201905092915050565b600082825260208201905092915050565b600081905092915050565b600061287b82612995565b915061288683612995565b9250827fffffffffffffffffffffffffffffffffffffffffffffffffffffffffffffffff038211156128bb576128ba612a8d565b5b828201905092915050565b60006128d182612995565b91506128dc83612995565b9250826128ec576128eb612abc565b5b828204905092915050565b600061290282612995565b915061290d83612995565b9250828210156129205761291f612a8d565b5b828203905092915050565b600061293682612975565b9050919050565b60008115159050919050565b60007fffffffff0000000000000000000000000000000000000000000000000000000082169050919050565b600073ffffffffffffffffffffffffffffffffffffffff82169050919050565b6000819050919050565b82818337600083830152505050565b60005b838110156129cc5780820151818401526020810190506129b1565b838111156129db576000848401525b50505050565b600060028204905060018216806129f957607f821691505b60208210811415612a0d57612a0c612aeb565b5b50919050565b6000612a1e82612995565b91507fffffffffffffffffffffffffffffffffffffffffffffffffffffffffffffffff821415612a5157612a50612a8d565b5b600182019050919050565b6000612a6782612995565b9150612a7283612995565b925082612a8257612a81612abc565b5b828206905092915050565b7f4e487b7100000000000000000000000000000000000000000000000000000000600052601160045260246000fd5b7f4e487b7100000000000000000000000000000000000000000000000000000000600052601260045260246000fd5b7f4e487b7100000000000000000000000000000000000000000000000000000000600052602260045260246000fd5b7f4e487b7100000000000000000000000000000000000000000000000000000000600052604160045260246000fd5b6000601f19601f8301169050919050565b612b638161292b565b8114612b6e57600080fd5b50565b612b7a8161293d565b8114612b8557600080fd5b50565b612b9181612949565b8114612b9c57600080fd5b50565b612ba881612995565b8114612bb357600080fd5b5056fea264697066735822122090680328c57166df3675b57a9814d17351fa4ed22ab02cabb541606fba1dfc4064736f6c63430008000033",
  "immutableReferences": {},
  "source": "//Contract based on https://docs.openzeppelin.com/contracts/3.x/erc721\r\n// SPDX-License-Identifier: MIT\r\npragma solidity ^0.8.0;\r\n\r\nimport \"@openzeppelin/contracts/token/ERC721/ERC721.sol\";\r\nimport \"@openzeppelin/contracts/token/ERC721/extensions/ERC721URIStorage.sol\";\r\nimport \"@openzeppelin/contracts/utils/Counters.sol\";\r\nimport \"@openzeppelin/contracts/access/Ownable.sol\";\r\n\r\n\r\ncontract PgNFT is ERC721URIStorage {\r\n    using Counters for Counters.Counter;\r\n    Counters.Counter private _tokenIds;\r\n\r\n    constructor() public ERC721(\"PgNFT\", \"PG\") {}\r\n\r\n    function mintNFT(address recipient, string memory tokenURI)\r\n        public virtual payable\r\n        returns (uint256)\r\n    {\r\n        require(msg.value >= 1000, \"Not enough ETH sent; check price!\");\r\n        _tokenIds.increment();\r\n\r\n        uint256 newItemId = _tokenIds.current();\r\n        _mint(recipient, newItemId);\r\n        _setTokenURI(newItemId, tokenURI);\r\n\r\n        return newItemId;\r\n    }\r\n}",
  "sourcePath": "D:\\Work Space\\YYG\\DApp\\dapp\\contract\\contracts\\PgNFT.sol",
  "compiler": {
    "name": "solc",
    "version": "0.8.0+commit.c7dfd78e.Emscripten.clang"
  },
  "schemaVersion": "3.4.3",
  "updatedAt": "2021-09-16T15:26:13.616Z",
  "devdoc": {
    "kind": "dev",
    "methods": {
      "approve(address,uint256)": {
        "details": "See {IERC721-approve}."
      },
      "balanceOf(address)": {
        "details": "See {IERC721-balanceOf}."
      },
      "getApproved(uint256)": {
        "details": "See {IERC721-getApproved}."
      },
      "isApprovedForAll(address,address)": {
        "details": "See {IERC721-isApprovedForAll}."
      },
      "name()": {
        "details": "See {IERC721Metadata-name}."
      },
      "ownerOf(uint256)": {
        "details": "See {IERC721-ownerOf}."
      },
      "safeTransferFrom(address,address,uint256)": {
        "details": "See {IERC721-safeTransferFrom}."
      },
      "safeTransferFrom(address,address,uint256,bytes)": {
        "details": "See {IERC721-safeTransferFrom}."
      },
      "setApprovalForAll(address,bool)": {
        "details": "See {IERC721-setApprovalForAll}."
      },
      "supportsInterface(bytes4)": {
        "details": "See {IERC165-supportsInterface}."
      },
      "symbol()": {
        "details": "See {IERC721Metadata-symbol}."
      },
      "tokenURI(uint256)": {
        "details": "See {IERC721Metadata-tokenURI}."
      },
      "transferFrom(address,address,uint256)": {
        "details": "See {IERC721-transferFrom}."
      }
    },
    "version": 1
  },
  "userdoc": {
    "kind": "user",
    "methods": {},
    "version": 1
  }
}